{
  "_format": "hh-sol-artifact-1",
  "contractName": "FillChecker",
  "sourceName": "contracts/FillChecker.sol",
  "abi": [
    {
      "inputs": [],
      "name": "OrderAlreadyFilled",
      "type": "error"
    },
    {
      "inputs": [
        {
          "internalType": "address",
          "name": "spokePoolAddress",
          "type": "address"
        },
        {
          "internalType": "address",
          "name": "sponsor",
          "type": "address"
        },
        {
          "internalType": "uint256",
          "name": "bundleId",
          "type": "uint256"
        }
      ],
      "name": "assertNotFilled",
      "outputs": [],
      "stateMutability": "view",
      "type": "function"
    }
  ],
  "bytecode": "0x608060405234801561001057600080fd5b506102de806100206000396000f3fe608060405234801561001057600080fd5b506004361061002b5760003560e01c8063f4db40f314610030575b600080fd5b61004a600480360381019061004591906101a9565b61004c565b005b600083905060008173ffffffffffffffffffffffffffffffffffffffff1663c57d606c85856040518363ffffffff1660e01b815260040161008e92919061021a565b602060405180830381865afa1580156100ab573d6000803e3d6000fd5b505050506040513d601f19601f820116820180604052508101906100cf919061027b565b90508015610109576040517fee3b3d4b00000000000000000000000000000000000000000000000000000000815260040160405180910390fd5b5050505050565b600080fd5b600073ffffffffffffffffffffffffffffffffffffffff82169050919050565b600061014082610115565b9050919050565b61015081610135565b811461015b57600080fd5b50565b60008135905061016d81610147565b92915050565b6000819050919050565b61018681610173565b811461019157600080fd5b50565b6000813590506101a38161017d565b92915050565b6000806000606084860312156101c2576101c1610110565b5b60006101d08682870161015e565b93505060206101e18682870161015e565b92505060406101f286828701610194565b9150509250925092565b61020581610135565b82525050565b61021481610173565b82525050565b600060408201905061022f60008301856101fc565b61023c602083018461020b565b9392505050565b60008115159050919050565b61025881610243565b811461026357600080fd5b50565b6000815190506102758161024f565b92915050565b60006020828403121561029157610290610110565b5b600061029f84828501610266565b9150509291505056fea26469706673582212205be439ff5fc5ece9d3f66edcb1604e6512576ffc8023d0a79f67f8bc93c37ee364736f6c63430008140033",
  "linkReferences": {},
  "deployedLinkReferences": {}
}